:100000000C942A000C94F7090C9447000C944700B8
:100010000C9447000C9447000C9447000C94470044
:100020000C9447000C9447000C94F81A0C947F1A17
:100030000C9447000C9447000C9447000C94470024
:100040000C94680B0C9447000C9447000C944700E8
:100050000C94470011241FBECFE5D8E0DEBFCDBF12
:1000600011E0A0E6B0E0E2E1F7E302C005900D92F6
:10007000AE36B107D9F711E0AEE6B1E001C01D928E
:10008000A637B107E1F70E942B1B0C94871B0C9439
:100090000000EF92FF920F931F937B018C0120E0F1
:1000A00030E040E05FE40E94F50388238CF0C80153
:1000B000B70120E030E040E05FE40E94C1010E940F
:1000C00055049B01AC01205030404040504806C0D0
:1000D000C801B7010E9455049B01AC01B901CA01D6
:1000E0001F910F91FF90EF900895A0E0B0E0EBE733
:1000F000F0E00C94501BDC012B01FA019C91923032
:1001000008F439C1EB018881823008F433C194309E
:1001100069F4843009F02FC111969C91119789815F
:10012000981709F428C1A5E6B1E025C1843009F487
:1001300021C18230A9F4923009F01DC19A01AD01AC
:1001400088E0EA010990AE01E90109929E0181501F
:10015000C1F7E201898111969C918923818308C1AD
:10016000923009F407C112962D903C901397EB0141
:100170008A819B811496AD90BD90CD90DC901797AD
:10018000EC80FD800E811F819101281B390BB90184
:1001900037FF04C066277727621B730B6032710537
:1001A0000CF061C0121613066CF537014801062EDB
:1001B00004C096948794779467940A94D2F721E0C8
:1001C00030E040E050E004C0220F331F441F551FB1
:1001D0006A95D2F721503040404050402E213F21B7
:1001E00040235123211531054105510521F021E01E
:1001F00030E040E050E079018A01E628F72808293C
:1002000019293CC0232BD1F1260E371E350146019A
:10021000062E04C096948794779467940A94D2F734
:1002200021E030E040E050E004C0220F331F441FC3
:10023000551F6A95D2F721503040404050402A2146
:100240003B214C215D21211531054105510521F04E
:1002500021E030E040E050E059016A01A628B728CB
:10026000C828D9280BC0821593052CF01C01AA249C
:10027000BB24650103C0EE24FF24870111969C91E5
:10028000D20111968C91981709F445C0992339F041
:10029000A80197012A193B094C095D0906C0A6016E
:1002A00095012E193F09400B510B57FD08C01182D3
:1002B0003382228224833583468357831DC081E0A5
:1002C00081833382228288279927DC01821B930B4A
:1002D000A40BB50B84839583A683B7830DC0220F2F
:1002E000331F441F551F24833583468357838281E0
:1002F000938101979383828324813581468157813D
:10030000DA01C9010197A109B1098F5F9F4FAF4F72
:10031000BF4328F30BC0918333822282EA0CFB1C7B
:100320000C1D1D1DE482F5820683178383E0808304
:10033000248135814681578157FF1AC0C901AA27F8
:1003400097FDA095BA2F81709070A070B0705695EF
:10035000479537952795822B932BA42BB52B848318
:100360009583A683B7838281938101969383828349
:10037000DF0101C0D201CD01CDB7DEB7E2E10C94BF
:100380006C1BA0E2B0E0E7ECF1E00C945C1B69832D
:100390007A838B839C832D833E834F835887E9E048
:1003A000EE2EF12CEC0EFD1ECE010196B7010E943F
:1003B0007E058E010F5E1F4FCE010596B8010E948B
:1003C0007E058A8991E089278A8BC701B801AE0131
:1003D000475E5F4F0E9475000E94A904A096E6E068
:1003E0000C94781BA0E2B0E0E8EFF1E00C945C1B09
:1003F00069837A838B839C832D833E834F835887C5
:10040000F9E0EF2EF12CEC0EFD1ECE010196B701A6
:100410000E947E058E010F5E1F4FCE010596B8012A
:100420000E947E05C701B801AE01475E5F4F0E9482
:1004300075000E94A904A096E6E00C94781BA0E247
:10044000B0E0E5E2F2E00C94501B69837A838B8381
:100450009C832D833E834F835887CE010196BE0136
:10046000675F7F4F0E947E05CE010596BE016F5EDD
:100470007F4F0E947E059985923088F0898982306D
:10048000C8F0943019F4823051F404C0843029F457
:10049000923081F485E691E0C6C0923049F420E0C4
:1004A0009A858A89981321E02A87CE010996BBC0D4
:1004B000823049F420E09A858A89981321E02A8BBA
:1004C000CE014196B0C02D843E844F8458886D88FB
:1004D0007E888F88988CEE24FF248701AA24BB2471
:1004E000650140E050E060E070E0E0E0F0E0C10174
:1004F00081709070892BE9F0E60CF71C081D191D1E
:100500009A01AB012A0D3B1D4C1D5D1D80E090E062
:10051000A0E0B0E0E614F7040805190520F481E036
:1005200090E0A0E0B0E0BA01A901480F591F6A1F8E
:100530007B1FAA0CBB1CCC1CDD1C97FE08C081E0F5
:1005400090E0A0E0B0E0A82AB92ACA2ADB2A3196B6
:10055000E032F10549F0660C771C881C991C569412
:10056000479437942794C3CFFA85EA892B893C892D
:100570008B859C85280F391F2E5F3F4F17C0CA01FE
:1005800081709070892B61F016950795F794E79428
:1005900080E090E0A0E0B0E8E82AF92A0A2B1B2BC3
:1005A00076956795579547952F5F3F4F77FDE7CF36
:1005B0000CC0440F551F661F771F17FD4160EE0CDE
:1005C000FF1C001F111F21503040403090E05907A0
:1005D00090E0690790E4790760F32B8F3C8FDB0193
:1005E000CA018F779070A070B07080349105A1051A
:1005F000B10561F447FD0AC0E114F10401051105DC
:1006000029F0405C5F4F6F4F7F4F40781A8EFE1786
:1006100011F081E08A8F4D8F5E8F6F8F78A383E01A
:10062000898FCE0149960E94A904A096E2E10C941C
:100630006C1BA8E1B0E0EFE1F3E00C94581B698378
:100640007A838B839C832D833E834F835887B9E0C5
:10065000EB2EF12CEC0EFD1ECE010196B7010E948F
:100660007E058E010F5E1F4FCE010596B8010E94D8
:100670007E052985223008F47EC03989323010F495
:10068000B8017CC08A859A8989278A87243011F02D
:10069000223031F4231709F06EC065E671E06EC0B8
:1006A000343039F41D861E861F86188A1C861B86E8
:1006B00004C0323021F484E08987B7015FC02B8504
:1006C0003C858B899C89281B390B3C872B87ED84C3
:1006D000FE840F851889AD88BE88CF88D88CEA142F
:1006E000FB040C051D0540F4EE0CFF1C001F111F40
:1006F000215030403C872B8720E030E040E050E044
:1007000080E090E0A0E0B0E460E070E0EA14FB0478
:100710000C051D0540F0282B392B4A2B5B2BEA18C2
:10072000FB080C091D09B695A79597958795EE0CC2
:10073000FF1C001F111F6F5F7F4F6F31710531F775
:10074000DA01C9018F779070A070B0708034910584
:10075000A105B10561F427FD0AC0E114F10401050A
:10076000110529F0205C3F4F4F4F5F4F20782D87B8
:100770003E874F87588BBE01675F7F4FCB010E943A
:10078000A9046896EAE00C94741BA8E1B0E0EBECD5
:10079000F3E00C945C1B69837A838B839C832D83A9
:1007A0003E834F83588789E0E82EF12CEC0EFD1E26
:1007B000CE010196B7010E947E058E010F5E1F4F8C
:1007C000CE010596B8010E947E058985823040F0F1
:1007D0008989823028F0C701B8010E94F60501C05E
:1007E0008FEF6896E6E00C94781BA8E1B0E0EBEFA1
:1007F000F3E00C945C1B69837A838B839C832D8349
:100800003E834F83588789E0E82EF12CEC0EFD1EC5
:10081000CE010196B7010E947E058E010F5E1F4F2B
:10082000CE010596B8010E947E058985823040F090
:100830008989823028F0C701B8010E94F60501C0FD
:100840008FEF6896E6E00C94781BA8E1B0E0EBE24D
:10085000F4E00C945C1B69837A838B839C832D83E7
:100860003E834F83588789E0E82EF12CEC0EFD1E65
:10087000CE010196B7010E947E058E010F5E1F4FCB
:10088000CE010596B8010E947E058985823040F030
:100890008989823028F0C701B8010E94F60501C09D
:1008A00081E06896E6E00C94781BACE0B0E0EBE504
:1008B000F4E00C94601B69837A838B839C83CE0164
:1008C0000196BE016B5F7F4F0E947E058D81823055
:1008D00061F1823050F1843021F48E81882351F10E
:1008E0002EC02F81388537FD20C06E812F31310514
:1008F0001CF06623F9F023C08EE190E0821B930B7D
:1009000029853A854B855C8504C056954795379572
:1009100027958A95D2F76623B1F05095409530958A
:1009200021953F4F4F4F5F4F0EC020E030E040E039
:1009300050E009C02FEF3FEF4FEF5FE704C020E02A
:1009400030E040E050E8B901CA012C96E2E00C9496
:100950007C1BDF92EF92FF920F931F93FC01E480C8
:10096000F58006811781D1808081823048F480E053
:1009700090E0A0E1B0E0E82AF92A0A2B1B2BA5C0E1
:10098000843009F49FC0823021F4EE24FF248701D3
:1009900005C0E114F1040105110519F4E0E0F0E0EF
:1009A00096C0628173819FEF623879070CF05BC05B
:1009B00022E83FEF261B370B2A3131052CF020E0CF
:1009C00030E040E050E02AC0B801A701022E04C088
:1009D00076956795579547950A94D2F781E090E010
:1009E000A0E0B0E004C0880F991FAA1FBB1F2A9582
:1009F000D2F70197A109B1098E219F21A023B1232C
:100A00000097A105B10521F081E090E0A0E0B0E001
:100A10009A01AB01282B392B4A2B5B2BDA01C90138
:100A20008F779070A070B07080349105A105B105EA
:100A300039F427FF09C0205C3F4F4F4F5F4F04C080
:100A4000215C3F4F4F4F5F4FE0E0F0E02030A0E0EF
:100A50003A07A0E04A07A0E45A0710F0E1E0F0E00E
:100A600079018A0127C06038710564F5FB01E158FE
:100A7000FF4FD801C7018F779070A070B07080349D
:100A80009105A105B10539F4E7FE0DC080E490E0C1
:100A9000A0E0B0E004C08FE390E0A0E0B0E0E80E9A
:100AA000F91E0A1F1B1F17FF05C016950795F7941F
:100AB000E794319687E016950795F794E7948A9521
:100AC000D1F705C0EE24FF248701EFEFF0E06E2F91
:100AD000679566276795902F9F77D794DD24D794E5
:100AE0008E2F8695492F462B582F5D29B701CA01B5
:100AF0001F910F91FF90EF90DF900895FC01DB01B3
:100B0000408151812281622F6F7770E0221F22275E
:100B1000221F9381892F880F822B282F30E0991F65
:100B20009927991F11969C93119721153105A9F5C5
:100B3000411551056105710511F482E037C082E865
:100B40009FEF13969C938E9312979A01AB0167E0E7
:100B5000220F331F441F551F6A95D1F783E08C93F2
:100B60000DC0220F331F441F551F12968D919C916B
:100B70001397019713969C938E931297203080E0E1
:100B8000380780E0480780E4580758F314962D93FF
:100B90003D934D935C93179708952F3F310579F45A
:100BA000411551056105710519F484E08C93089590
:100BB00064FF03C081E08C9312C01C9210C02F57B9
:100BC000304013963C932E93129783E08C9387E0EA
:100BD000440F551F661F771F8A95D1F770641496CE
:100BE0004D935D936D937C93179708951F93DC014C
:100BF000FB019C91923008F447C08081823008F458
:100C000043C0943051F411961C91843099F5818140
:100C1000682F70E0611B71093FC0843021F0923071
:100C200031F48230B9F18181882389F12DC0119688
:100C30001C9111978230F1F081811817D9F4129626
:100C40002D913C911397828193818217930794F0A1
:100C500028173907BCF014968D919D910D90BC9189
:100C6000A02D2481358146815781281739074A07ED
:100C70005B0718F4112341F00AC082179307A407F9
:100C8000B50740F4112319F061E070E005C06FEF83
:100C90007FEF02C060E070E0CB011F910895DF9309
:100CA000CF93CDB7DEB762970FB6F894DEBF0FBE15
:100CB000CDBF81E08A8B81E0898B81E0888B81E0E8
:100CC0008F8783E061E040E00E94B00B83E061E049
:100CD00041E00E94B80C83E062E040E00E94B00B6B
:100CE00083E062E041E00E94B80C80E060E040E018
:100CF0000E94B00B80E060E041E00E94B80C80E010
:100D000061E040E00E94B00B80E061E041E00E94C1
:100D1000B80C83E062E00E94C00D8A8B83E061E042
:100D20000E94C00D898B80E060E00E94C00D888B1E
:100D300080E061E00E94C00D8F878A89882351F48A
:100D40008989882339F48889882321F48F85882329
:100D500009F4A8C081E00E9484168A89813019F0C4
:100D60008989813069F480E690E00E94F41880E07F
:100D700061E00E94B11880E790E00E94F4181FC063
:100D80008889813069F480E690E00E94F41880E060
:100D900061E00E94B1188DE790E00E94F4180FC046
:100DA0008F85813061F480E690E00E94F41880E045
:100DB00061E00E94B1188AE890E00E94F41880E097
:100DC00090E0AAEFB3E48B879C87AD87BE876B85E5
:100DD0007C858D859E8520E030E04AEF54E40E94BA
:100DE0001F02DC01CB018F839887A987BA876F81A7
:100DF000788589859A8520E030E040E85FE30E94AD
:100E0000250488232CF481E090E09E838D833FC0ED
:100E10006F81788589859A8520E03FEF4FE757E419
:100E20000E94C50318164CF56B857C858D859E85C3
:100E300020E030E040E251E40E941F02DC01CB01DF
:100E4000BC01CD010E944900DC01CB019E838D8352
:100E50000FC088EC90E09C838B838B819C810197F1
:100E6000F1F79C838B838D819E8101979E838D8377
:100E70008D819E81009769F74CCF6F817885898538
:100E80009A850E944900DC01CB019E838D838D8170
:100E90009E819A83898389819A810197F1F79A8348
:100EA000898337CF80E064E00E94790F80E00E9460
:100EB0007B10AFE5B0E0EFE5F0E0808180688C93D7
:100EC00062960FB6F894DEBF0FBECDBFCF91DF9113
:100ED0000895DF93CF93CDB7DEB763970FB6F8943D
:100EE000DEBF0FBECDBF998B888B7B8B6A8B1F8635
:100EF00081E00E94841684E990E00E94F41880E06A
:100F000061E00E94B11883EA90E00E94F41880E04A
:100F100090E0AAEFB4E48B879C87AD87BE876B8592
:100F20007C858D859E8520E030E04AEF54E40E9468
:100F30001F02DC01CB018F839887A987BA876F8155
:100F4000788589859A8520E030E040E85FE30E945B
:100F5000250488232CF481E090E09E838D833FC09C
:100F60006F81788589859A8520E03FEF4FE757E4C8
:100F70000E94C50318164CF56B857C858D859E8572
:100F800020E030E040E251E40E941F02DC01CB018E
:100F9000BC01CD010E944900DC01CB019E838D8301
:100FA0000FC088EC90E09C838B838B819C810197A0
:100FB000F1F79C838B838D819E8101979E838D8326
:100FC0008D819E81009769F714C06F81788589852E
:100FD0009A850E944900DC01CB019E838D838D811F
:100FE0009E819A83898389819A810197F1F79A83F7
:100FF000898381E080936E0181E00E94841685EBF5
:1010000090E00E94F41880E061E00E94B11886EC44
:1010100090E00E94F4180E945C118F878F858133C5
:1010200031F08F85823319F08F858333A1F78F8557
:101030008053E889F98980830E945C118823E1F755
:1010400082E080936E0181E00E94841683ED90E03F
:101050000E94F41880E061E00E94B11884EE90E0F4
:101060000E94F4180E945C118F878F85813319F0DC
:101070008F858233B9F78F858053EA89FB89808316
:101080000E945C118823E1F710926E0163960FB6FF
:10109000F894DEBF0FBECDBFCF91DF910895DF93EF
:1010A000CF93CDB7DEB7A1970FB6F894DEBF0FBED2
:1010B000CDBF89A381E088A31F8E1E8E1D8E89A1BE
:1010C000813031F481E088A38FEF80936F0108C0F5
:1010D00089A1823029F482E088A380E880936F019F
:1010E00081E063E041E00E94B00B0E94651984E05A
:1010F0000E94B819A3E5B0E0E3E5F0E080818062EA
:101100008C9380916F010E94CE1A81E00E94841618
:10111000D9C080E060E00E94B1188D8D882329F449
:1011200085EF90E00E94F41817C08D8D813029F46E
:1011300086E091E00E94F4180FC08D8D823029F472
:1011400087E191E00E94F41807C08D8D833021F46F
:1011500088E291E00E94F4188D8D8F5F8D8F8D8DC8
:10116000843008F01D8E84E061E00E94B11888A1EF
:101170000E941D198AE30E946D178F8D8A3018F422
:1011800080E30E946D178F8D0E941D198AE30E94D3
:101190006D178E8D8A3018F480E30E946D178E8D46
:1011A0000E941D1989E391E00E94F41880E090E00C
:1011B000AAE7B4E4898F9A8FAB8FBC8F698D7A8D43
:1011C0008B8D9C8D20E030E04AEF54E40E941F029A
:1011D000DC01CB018D8B9E8BAF8BB88F6D897E89A7
:1011E0008F89988D20E030E040E85FE30E9425047D
:1011F00088232CF481E090E09C8B8B8B3FC06D8921
:101200007E898F89988D20E03FEF4FE757E40E9459
:10121000C50318164CF5698D7A8D8B8D9C8D20E059
:1012200030E040E251E40E941F02DC01CB01BC012E
:10123000CD010E944900DC01CB019C8B8B8B0FC040
:1012400088EC90E09A8B898B89899A890197F1F7CC
:101250009A8B898B8B899C8901979C8B8B8B8B8933
:101260009C89009769F714C06D897E898F89988D54
:101270000E944900DC01CB019C8B8B8B8B899C8964
:10128000988B8F878F8598890197F1F7988B8F8737
:101290008E8D8823A1F48F8D882359F488A188230B
:1012A00089F088A1815088A38BE38F8F8BE38E8F89
:1012B00009C08F8D81508F8F8BE38E8F03C08E8DF1
:1012C00081508E8F88A1882309F023CF8F8D8823AA
:1012D00009F01FCF8E8D882309F01BCF80E00E947C
:1012E000CE1A81E00E94841681E060E00E94B1186D
:1012F0008DE391E00E94F41880E090E8ABE3B5E460
:101300008B879C87AD87BE876B857C858D859E8509
:1013100020E030E04AEF54E40E941F02DC01CB01E0
:101320008F839887A987BA876F81788589859A8501
:1013300020E030E040E85FE30E94250488232CF49D
:1013400081E090E09E838D833FC06F8178858985A1
:101350009A8520E03FEF4FE757E40E94C503181637
:101360004CF56B857C858D859E8520E030E040E2E4
:1013700051E40E941F02DC01CB01BC01CD010E949F
:101380004900DC01CB019E838D830FC088EC90E087
:101390009C838B838B819C810197F1F79C838B834A
:1013A0008D819E8101979E838D838D819E81009783
:1013B00069F714C06F81788589859A850E944900F4
:1013C000DC01CB019E838D838D819E819A838983ED
:1013D00089819A810197F1F79A838983A1960FB643
:1013E000F894DEBF0FBECDBFCF91DF9108951F925D
:1013F0000F920FB60F9211242F933F934F935F9349
:101400006F937F938F939F93AF93BF93EF93FF93CC
:10141000DF93CF93CDB7DEB780E00E94CE1A81E094
:101420000E9484168BE491E00E94F41880E061E051
:101430000E94B11889E591E00E94F41883E062E00F
:101440000E94C00D8130D1F383E061E00E94C00DA5
:101450008130A1F381E00E94841680916E01813079
:1014600069F485EB90E00E94F41880E061E00E944E
:10147000B11886EC90E00E94F41815C080916E01BE
:10148000823069F483ED90E00E94F41880E061E01E
:101490000E94B11884EE90E00E94F41804C080917C
:1014A0006F010E94CE1ACF91DF91FF91EF91BF9112
:1014B000AF919F918F917F916F915F914F913F91EC
:1014C0002F910F900FBE0F901F901895DF93CF9321
:1014D000CDB7DEB7A7E2B0E0E7E2F0E0808180645C
:1014E0008C93A7E2B0E0E7E2F0E080818F778C9305
:1014F000A7E2B0E0E7E2F0E08081807E8C93A7E293
:10150000B0E0E7E2F0E080818C93A7E2B0E0E7E2B0
:10151000F0E0808180628C93A6E2B0E0E6E2F0E049
:1015200080818F778C93A6E2B0E0E6E2F0E08081E4
:101530008F7B8C93A6E2B0E0E6E2F0E080818F7DC5
:101540008C93A6E2B0E0E6E2F0E0808180618C93CB
:10155000A6E2B0E0E6E2F0E08081877F8C93A6E22D
:10156000B0E0E6E2F0E0808182608C93A6E2B0E039
:10157000E6E2F0E0808184608C93CF91DF91089562
:10158000DF93CF93CDB7DEB7A6E2B0E0E6E2F0E0BE
:10159000808180688C93CF91DF910895DF93CF9302
:1015A000CDB7DEB7A6E2B0E0E6E2F0E080818F776B
:1015B0008C93CF91DF910895DF93CF9300D0CDB777
:1015C000DEB71A821982E5E2F0E08081882F90E090
:1015D0009A83898389819A810F900F90CF91DF91AF
:1015E0000895DF93CF930F92CDB7DEB78983A7E23B
:1015F000B0E0E7E2F0E08081807E8C93A7E2B0E08B
:10160000E7E2F0E090818981892B8C93A6E2B0E03B
:10161000E6E2F0E0808180648C93E6E2F0E0808195
:1016200082958F70882F90E0817090700097A9F359
:10163000A6E2B0E0E6E2F0E0808180618C930E9457
:10164000DC0A0F90CF91DF910895DF93CF93CDB750
:10165000DEB7A6E2B0E0E6E2F0E0808180648C9341
:10166000CF91DF910895DF93CF93CDB7DEB7A6E298
:10167000B0E0E6E2F0E0808180628C93A0E5B0E02B
:10168000E0E5F0E080818F718C93CF91DF91089538
:10169000DF93CF93CDB7DEB7A6E2B0E0E6E2F0E0AD
:1016A000808188608C93CF91DF910895DF93CF93F1
:1016B00000D0CDB7DEB79A83898389819A819093D0
:1016C0007101809370010F900F90CF91DF91089579
:1016D0001F920F920FB60F9211242F933F934F93A7
:1016E0005F936F937F938F939F93AF93BF93EF938A
:1016F000FF93DF93CF93CDB7DEB7809170019091C8
:101700007101009729F0E0917001F0917101099544
:10171000CF91DF91FF91EF91BF91AF919F918F9109
:101720007F916F915F914F913F912F910F900FBEDD
:101730000F901F901895DF93CF93CDB7DEB7EAE3F4
:10174000F0E08DE78083E7E3F0E08DE78083E4E37A
:10175000F0E01082E1E3F0E01082CF91DF91089594
:10176000DF93CF93CDB7DEB727970FB6F894DEBFE0
:101770000FBECDBF89836A834B838981843008F093
:10178000EEC08A81883008F0EAC08B81813009F090
:101790006FC08981282F30E03F832E838E819F8107
:1017A0008130910549F12E813F81223031052CF4A1
:1017B0008E819F81009761F0D2C02E813F812230BF
:1017C000310571F18E819F8183309105E9F1C7C0A8
:1017D000AAE3B0E0EAE3F0E08081482F8A81282F75
:1017E00030E081E090E0022E02C0880F991F0A9439
:1017F000E2F7842B8C93B3C0A7E3B0E0E7E3F0E01B
:101800008081482F8A81282F30E081E090E0022EED
:1018100002C0880F991F0A94E2F7842B8C939FC013
:10182000A4E3B0E0E4E3F0E08081482F8A81282F30
:1018300030E081E090E0022E02C0880F991F0A94E8
:10184000E2F7842B8C938BC0A1E3B0E0E1E3F0E0FE
:101850008081482F8A81282F30E081E090E0022E9D
:1018600002C0880F991F0A94E2F7842B8C9377C0EB
:101870008B81882309F073C08981282F30E03D8354
:101880002C838C819D818130910559F12C813D8182
:10189000223031052CF48C819D81009769F05FC066
:1018A0002C813D812230310589F18C819D818330ED
:1018B000910509F440C053C0AAE3B0E0EAE3F0E0C8
:1018C0008081482F8A81282F30E081E090E0022E2D
:1018D00002C0880F991F0A94E2F7809584238C93A5
:1018E0003EC0A7E3B0E0E7E3F0E08081482F8A81C3
:1018F000282F30E081E090E0022E02C0880F991F6F
:101900000A94E2F7809584238C9329C0A4E3B0E085
:10191000E4E3F0E08081482F8A81282F30E081E0E5
:1019200090E0022E02C0880F991F0A94E2F780957A
:1019300084238C9314C0A1E3B0E0E1E3F0E0808164
:10194000482F8A81282F30E081E090E0022E02C0EB
:10195000880F991F0A94E2F7809584238C93279629
:101960000FB6F894DEBF0FBECDBFCF91DF910895C3
:10197000DF93CF93CDB7DEB727970FB6F894DEBFCE
:101980000FBECDBF89836A834B838981843008F081
:10199000EEC08A81883008F0EAC08B81813009F07E
:1019A0006FC08981282F30E03F832E838E819F81F5
:1019B0008130910549F12E813F81223031052CF48F
:1019C0008E819F81009761F0D2C02E813F812230AD
:1019D000310571F18E819F8183309105E9F1C7C096
:1019E000ABE3B0E0EBE3F0E08081482F8A81282F61
:1019F00030E081E090E0022E02C0880F991F0A9427
:101A0000E2F7842B8C93B3C0A8E3B0E0E8E3F0E006
:101A10008081482F8A81282F30E081E090E0022EDB
:101A200002C0880F991F0A94E2F7842B8C939FC001
:101A3000A5E3B0E0E5E3F0E08081482F8A81282F1C
:101A400030E081E090E0022E02C0880F991F0A94D6
:101A5000E2F7842B8C938BC0A2E3B0E0E2E3F0E0EA
:101A60008081482F8A81282F30E081E090E0022E8B
:101A700002C0880F991F0A94E2F7842B8C9377C0D9
:101A80008B81882309F073C08981282F30E03D8342
:101A90002C838C819D818130910559F12C813D8170
:101AA000223031052CF48C819D81009769F05FC054
:101AB0002C813D812230310589F18C819D818330DB
:101AC000910509F440C053C0ABE3B0E0EBE3F0E0B4
:101AD0008081482F8A81282F30E081E090E0022E1B
:101AE00002C0880F991F0A94E2F7809584238C9393
:101AF0003EC0A8E3B0E0E8E3F0E08081482F8A81AF
:101B0000282F30E081E090E0022E02C0880F991F5C
:101B10000A94E2F7809584238C9329C0A5E3B0E072
:101B2000E5E3F0E08081482F8A81282F30E081E0D2
:101B300090E0022E02C0880F991F0A94E2F7809568
:101B400084238C9314C0A2E3B0E0E2E3F0E0808150
:101B5000482F8A81282F30E081E090E0022E02C0D9
:101B6000880F991F0A94E2F7809584238C93279617
:101B70000FB6F894DEBF0FBECDBFCF91DF910895B1
:101B8000DF93CF9300D000D00F92CDB7DEB78A831A
:101B90006B8319828A81843008F06BC08B81883016
:101BA00008F067C08A81282F30E03D832C834C8168
:101BB0005D814130510541F18C819D8182309105DB
:101BC00034F42C813D812115310561F052C04C81E6
:101BD0005D814230510551F18C819D8183309105A9
:101BE000B9F147C0E9E3F0E08081282F30E08B8134
:101BF000882F90E0A90102C0559547958A95E2F794
:101C0000CA018170898335C0E6E3F0E08081282F26
:101C100030E08B81882F90E0A90102C0559547954F
:101C20008A95E2F7CA018170898323C0E3E3F0E07B
:101C30008081282F30E08B81882F90E0A90102C09D
:101C4000559547958A95E2F7CA018170898311C03D
:101C5000E0E3F0E08081282F30E08B81882F90E056
:101C6000A90102C0559547958A95E2F7CA0181708E
:101C7000898389810F900F900F900F900F90CF91D3
:101C8000DF910895DF93CF9300D000D0CDB7DEB7BA
:101C900089836A838981843008F072C08A818830A0
:101CA00008F06EC08981282F30E03C832B838B8124
:101CB0009C818130910549F12B813C812230310595
:101CC0002CF48B819C81009761F05AC02B813C8160
:101CD0002230310571F18B819C8183309105E9F1CE
:101CE0004FC0ABE3B0E0EBE3F0E08081482F8A81A6
:101CF000282F30E081E090E0022E02C0880F991F6B
:101D00000A94E2F784278C933BC0A8E3B0E0E8E3B1
:101D1000F0E08081482F8A81282F30E081E090E038
:101D2000022E02C0880F991F0A94E2F784278C9331
:101D300027C0A5E3B0E0E5E3F0E08081482F8A8189
:101D4000282F30E081E090E0022E02C0880F991F1A
:101D50000A94E2F784278C9313C0A2E3B0E0E2E395
:101D6000F0E08081482F8A81282F30E081E090E0E8
:101D7000022E02C0880F991F0A94E2F784278C93E1
:101D80000F900F900F900F90CF91DF910895DF93F8
:101D9000CF9300D000D0CDB7DEB789836A83898125
:101DA000843090F58981282F30E03C832B838B8110
:101DB0009C8181309105D1F02B813C81223031050D
:101DC0002CF48B819C81009761F01EC02B813C819B
:101DD0002230310581F08B819C818330910581F027
:101DE00013C0EAE3F0E08A8180830EC0E7E3F0E00D
:101DF0008A81808309C0E4E3F0E08A81808304C0A3
:101E0000E1E3F0E08A8180830F900F900F900F90B4
:101E1000CF91DF910895DF93CF9300D000D0CDB75D
:101E2000DEB789836A838981843090F58981282F80
:101E300030E03C832B838B819C8181309105D1F0F4
:101E40002B813C81223031052CF48B819C810097C1
:101E500061F01EC02B813C812230310581F08B81E5
:101E60009C818330910581F013C0EBE3F0E08A811F
:101E700080830EC0E8E3F0E08A81808309C0E5E357
:101E8000F0E08A81808304C0E2E3F0E08A8180830D
:101E90000F900F900F900F90CF91DF910895DF93E7
:101EA000CF93CDB7DEB7A5E5B0E0E5E5F0E0808102
:101EB0008E7F8C93A5E5B0E0E5E5F0E0808182605F
:101EC0008C93A5E5B0E0E5E5F0E080818B7F8C9315
:101ED000A5E5B0E0E5E5F0E0808188608C93A4E5BD
:101EE000B0E0E4E5F0E080818F7B8C93CF91DF91CF
:101EF0000895DF93CF93CDB7DEB72A970FB6F89446
:101F0000DEBF0FBECDBF89836A838981282F30E071
:101F10003A87298789859A858130910509F467C0B8
:101F200029853A852230310509F4BDC089859A8515
:101F3000009709F0D7C08A81282F30E038872F8397
:101F40008F8198858230910529F12F813885233042
:101F5000310534F48F8198858130910561F0C2C0DC
:101F60002F8138852330310521F18F819885843088
:101F7000910571F1B7C0A5E5B0E0E5E5F0E080813D
:101F80008E7F8C93A5E5B0E0E5E5F0E080818D7F64
:101F90008C93A8C0A5E5B0E0E5E5F0E08081816024
:101FA0008C93A5E5B0E0E5E5F0E080818D7F8C9332
:101FB00099C0A5E5B0E0E5E5F0E080818E7F8C93E7
:101FC000A5E5B0E0E5E5F0E0808182608C938AC011
:101FD000A5E5B0E0E5E5F0E0808181608C93A5E5C2
:101FE000B0E0E5E5F0E0808182608C937BC08A817F
:101FF000282F30E03E832D838D819E818230910594
:1020000029F12D813E812330310534F48D819E816B
:102010008130910561F066C02D813E81233031050C
:1020200021F18D819E818430910571F15BC0A5E520
:10203000B0E0E5E5F0E080818B7F8C93A5E5B0E032
:10204000E5E5F0E08081877F8C934CC0A5E5B0E0AA
:10205000E5E5F0E0808184608C93A5E5B0E0E5E5FE
:10206000F0E08081877F8C933DC0A5E5B0E0E5E599
:10207000F0E080818B7F8C93A5E5B0E0E5E5F0E0B2
:10208000808188608C932EC0A5E5B0E0E5E5F0E0A6
:10209000808184608C93A5E5B0E0E5E5F0E0808187
:1020A00088608C931FC08A81282F30E03C832B836B
:1020B0008B819C818330910531F02B813C812430D0
:1020C000310549F00FC0A4E5B0E0E4E5F0E080811F
:1020D0008F7B8C9307C0A4E5B0E0E4E5F0E080815D
:1020E00080648C932A960FB6F894DEBF0FBECDBFE6
:1020F000CF91DF910895DF93CF9300D00F92CDB7AA
:10210000DEB789838981282F30E03B832A838A8147
:102110009B818130910589F02A813B8122303105F4
:10212000A1F08A819B810097B9F4ABE5B0E0EBE5C3
:10213000F0E0808180648C930FC0ABE5B0E0EBE50C
:10214000F0E0808180688C9307C0ABE5B0E0EBE500
:10215000F0E0808180628C930F900F900F90CF9170
:10216000DF910895DF93CF9300D00F92CDB7DEB704
:1021700089838981282F30E03B832A838A819B8150
:102180008130910589F02A813B8122303105A1F00F
:102190008A819B810097B9F4ABE5B0E0EBE5F0E014
:1021A00080818F7B8C930FC0ABE5B0E0EBE5F0E076
:1021B00080818F778C9307C0ABE5B0E0EBE5F0E072
:1021C00080818F7D8C930F900F900F90CF91DF9136
:1021D0000895DF93CF93CDB7DEB7AFE5B0E0EFE57D
:1021E000F0E0808180688C93CF91DF910895DF9338
:1021F000CF93CDB7DEB7AFE5B0E0EFE5F0E080819B
:102200008F778C93CF91DF910895DF93CF93CDB7E4
:10221000DEB782E060E040E00E94B00B82E061E067
:1022200040E00E94B00B82E062E040E00E94B00B10
:1022300082E063E040E00E94B00B82E064E041E0B5
:102240000E94B00B82E065E041E00E94B00B82E0AA
:1022500066E041E00E94B00B82E067E041E00E944E
:10226000B00B82E060E041E00E94B80C82E061E0E7
:1022700041E00E94B80C82E062E041E00E94B80CAC
:1022800082E063E041E00E94B80C82E064E041E05B
:102290000E94B80C82E065E041E00E94B80C82E048
:1022A00066E041E00E94B80C82E067E041E00E94F5
:1022B000B80CCF91DF910895DF93CF93CDB7DEB700
:1022C0002A970FB6F894DEBF0FBECDBF198282E009
:1022D00064E040E00E94B80C82E065E041E00E94CA
:1022E000B80C82E066E041E00E94B80C82E067E052
:1022F00041E00E94B80C82E060E00E94C00D8A8339
:1023000082E061E00E94C00D882F90E0880F991F45
:10231000982F8A81892B8A8382E062E00E94C00D17
:10232000882F90E0880F991F880F991F982F8A8116
:10233000892B8A8382E063E00E94C00D882F90E0A1
:10234000880F991F880F991F880F991F982F8A81CE
:10235000892B8A838A81282F30E03A8729878985CB
:102360009A858B309105D9F029853A852C30310535
:1023700034F489859A8587309105A1F015C02985A7
:102380003A852D30310541F089859A858E30910549
:1023900059F487E3898308C084E3898305C081E316
:1023A000898302C083E2898382E064E041E00E9485
:1023B000B80C82E065E040E00E94B80C82E066E084
:1023C00041E00E94B80C82E067E041E00E94B80C56
:1023D00082E060E00E94C00D8A8382E061E00E949A
:1023E000C00D882F90E0880F991F982F8A81892B24
:1023F0008A8382E062E00E94C00D882F90E0880FFF
:10240000991F880F991F982F8A81892B8A8382E0D0
:1024100063E00E94C00D882F90E0880F991F880FFD
:10242000991F880F991F982F8A81892B8A838A8107
:10243000282F30E038872F838F8198858B30910546
:10244000D9F02F8138852C30310534F48F8198856F
:1024500087309105A1F015C02F8138852D303105C9
:1024600041F08F8198858E30910559F488E38983F6
:1024700008C085E3898305C082E3898302C080E3C5
:10248000898382E064E041E00E94B80C82E065E06C
:1024900041E00E94B80C82E066E040E00E94B80C87
:1024A00082E067E041E00E94B80C82E060E00E94B8
:1024B000C00D8A8382E061E00E94C00D882F90E009
:1024C000880F991F982F8A81892B8A8382E062E086
:1024D0000E94C00D882F90E0880F991F880F991FC8
:1024E000982F8A81892B8A8382E063E00E94C00D45
:1024F000882F90E0880F991F880F991F880F991FC8
:10250000982F8A81892B8A838A81282F30E03E8305
:102510002D838D819E818B309105D9F02D813E8157
:102520002C30310534F48D819E8187309105A1F0E6
:1025300015C02D813E812D30310541F08D819E8168
:102540008E30910559F489E3898308C086E3898335
:1025500005C083E3898302C08DE3898382E064E060
:1025600041E00E94B80C82E065E041E00E94B80CB6
:1025700082E066E041E00E94B80C82E067E040E063
:102580000E94B80C82E060E00E94C00D8A8382E065
:1025900061E00E94C00D882F90E0880F991F982F4E
:1025A0008A81892B8A8382E062E00E94C00D882F95
:1025B00090E0880F991F880F991F982F8A81892B87
:1025C0008A8382E063E00E94C00D882F90E0880F2C
:1025D000991F880F991F880F991F982F8A81892B1F
:1025E0008A838A81282F30E03C832B838B819C81D6
:1025F0008B309105D9F02B813C812C30310534F49E
:102600008B819C8187309105A1F015C02B813C8185
:102610002D30310541F08B819C818E30910559F42C
:102620008FE2898308C08AE2898305C08DE28983AD
:1026300002C08BE2898389812A960FB6F894DEBFA7
:102640000FBECDBFCF91DF9108950F931F93DF93FE
:10265000CF93CDB7DEB7C455D0400FB6F894DEBFE8
:102660000FBECDBF81E065E041E00E94B00B81E08C
:1026700067E041E00E94B00B81E066E041E00E942B
:10268000B00B80E063E041E00E94B00B80E064E0CA
:1026900041E00E94B00B80E065E041E00E94B00B99
:1026A00080E066E041E00E94B00B80E067E041E03E
:1026B0000E94B00B83E064E041E00E94B00B83E035
:1026C00065E041E00E94B00B81E064E041E00E94DF
:1026D000B00BFE01EF5AFF4F80E090E0A0EFB1E4B5
:1026E00080839183A283B3838E01035B1F4FFE011E
:1026F000EF5AFF4F608171818281938120E030E049
:102700004AEF54E40E941F02DC01CB01F8018083F0
:102710009183A283B383FE01E35BFF4F60817181EC
:102720008281938120E030E040E85FE30E9425044D
:10273000882344F4FE01E55BFF4F81E090E0918344
:10274000808364C0FE01E35BFF4F60817181828101
:10275000938120E03FEF4FE757E40E94C50318162E
:102760000CF043C0FE01EF5AFF4F608171818281FE
:10277000938120E030E040E251E40E941F02DC013E
:10278000CB018E01055B1F4FBC01CD010E944900AA
:10279000DC01CB01F801918380831FC0FE01E75B60
:1027A000FF4F88EC90E091838083FE01E75BFF4F51
:1027B000808191810197F1F7FE01E75BFF4F9183E3
:1027C0008083DE01A55BBF4FFE01E55BFF4F80818B
:1027D0009181019711969C938E93FE01E55BFF4FCB
:1027E000808191810097D1F627C08E01055B1F4F34
:1027F000FE01E35BFF4F60817181828193810E94C2
:102800004900DC01CB01F80191838083DE01A95BE3
:10281000BF4FFE01E55BFF4F808191818D939C93BB
:10282000FE01E95BFF4F808191810197F1F7FE0185
:10283000E95BFF4F9183808382E00E948416FE0152
:10284000ED5BFF4F80E090E0A0E8BFE380839183E1
:10285000A283B3838E01015C1F4FFE01ED5BFF4F2E
:10286000608171818281938120E030E04AEF54E4FD
:102870000E941F02DC01CB01F80180839183A283B7
:10288000B383FE01FF96608171818281938120E094
:1028900030E040E85FE30E94250488232CF481E0C7
:1028A00090E09EAF8DAF46C0FE01FF9660817181C2
:1028B0008281938120E03FEF4FE757E40E94C503F8
:1028C000181664F5FE01ED5BFF4F60817181828116
:1028D000938120E030E040E251E40E941F02DC01DD
:1028E000CB01BC01CD010E944900DC01CB019EAFB0
:1028F0008DAF0FC088EC90E09CAF8BAF8BAD9CADE3
:102900000197F1F79CAF8BAF8DAD9EAD01979EAF58
:102910008DAF8DAD9EAD009769F716C0FE01FF9695
:1029200060817181828193810E944900DC01CB0129
:102930009EAF8DAF8DAD9EAD9AAF89AF89AD9AAD8B
:102940000197F1F79AAF89AF88E30E94841680E07F
:1029500090E0A0E8BFE38DAB9EABAFABB8AF6DA985
:102960007EA98FA998AD20E030E04AEF54E40E94A0
:102970001F02DC01CB0189AB9AABABABBCAB69A945
:102980007AA98BA99CA920E030E040E85FE30E948F
:10299000250488232CF481E090E098AB8FA73FC0FA
:1029A00069A97AA98BA99CA920E03FEF4FE757E4DA
:1029B0000E94C50318164CF56DA97EA98FA998AD84
:1029C00020E030E040E251E40E941F02DC01CB0134
:1029D000BC01CD010E944900DC01CB0198AB8FA75F
:1029E0000FC088EC90E09EA78DA78DA59EA50197AE
:1029F000F1F79EA78DA78FA598A9019798AB8FA7F0
:102A00008FA598A9009769F714C069A97AA98BA91D
:102A10009CA90E944900DC01CB0198AB8FA78FA530
:102A200098A99CA78BA78BA59CA50197F1F79CA7BC
:102A30008BA78CE00E94841680E090E0A0E8BFE3C2
:102A40008FA398A7A9A7BAA76FA178A589A59AA5CA
:102A500020E030E04AEF54E40E941F02DC01CB0189
:102A60008BA39CA3ADA3BEA36BA17CA18DA19EA1B2
:102A700020E030E040E85FE30E94250488232CF446
:102A800081E090E09AA389A33FC06BA17CA18DA1B6
:102A90009EA120E03FEF4FE757E40E94C5031816C0
:102AA0004CF56FA178A589A59AA520E030E040E219
:102AB00051E40E941F02DC01CB01BC01CD010E9448
:102AC0004900DC01CB019AA389A30FC088EC90E0F8
:102AD00098A38F8F8F8D98A10197F1F798A38F8F6F
:102AE00089A19AA101979AA389A389A19AA1009784
:102AF00069F714C06BA17CA18DA19EA10E94490021
:102B0000DC01CB019AA389A389A19AA19E8F8D8F05
:102B10008D8D9E8D0197F1F79E8F8D8F81E00E94A4
:102B2000841680E090E0A0E8BFE3898F9A8FAB8F96
:102B3000BC8F698D7A8D8B8D9C8D20E030E04AEFC3
:102B400054E40E941F02DC01CB018D8B9E8BAF8B66
:102B5000B88F6D897E898F89988D20E030E040E8BC
:102B60005FE30E94250488232CF481E090E09C8B95
:102B70008B8B3FC06D897E898F89988D20E03FEFD8
:102B80004FE757E40E94C50318164CF5698D7A8DFE
:102B90008B8D9C8D20E030E040E251E40E941F02CA
:102BA000DC01CB01BC01CD010E944900DC01CB015D
:102BB0009C8B8B8B0FC088EC90E09A8B898B8989DA
:102BC0009A890197F1F79A8B898B8B899C89019758
:102BD0009C8B8B8B8B899C89009769F714C06D89BE
:102BE0007E898F89988D0E944900DC01CB019C8BE6
:102BF0008B8B8B899C89988B8F878F859889019780
:102C0000F1F7988B8F8786E00E94841680E090E031
:102C1000A0E8BFE38B879C87AD87BE876B857C85EB
:102C20008D859E8520E030E04AEF54E40E941F022B
:102C3000DC01CB018F839887A987BA876F8178855C
:102C400089859A8520E030E040E85FE30E94250412
:102C500088232CF481E090E09E838D833FC06F81B8
:102C6000788589859A8520E03FEF4FE757E40E94F9
:102C7000C50318164CF56B857C858D859E8520E0F7
:102C800030E040E251E40E941F02DC01CB01BC01B4
:102C9000CD010E944900DC01CB019E838D830FC0D2
:102CA00088EC90E09C838B838B819C810197F1F76A
:102CB0009C838B838D819E8101979E838D838D81E3
:102CC0009E81009769F714C06F81788589859A8500
:102CD0000E944900DC01CB019E838D838D819E8102
:102CE0009A83898389819A810197F1F79A838983ED
:102CF000CC5ADF4F0FB6F894DEBF0FBECDBFCF91D9
:102D0000DF911F910F910895DF93CF93CDB7DEB779
:102D100069970FB6F894DEBF0FBECDBF898F81E0F3
:102D200065E040E00E94B80C81E067E040E00E946E
:102D3000B80C898D0E94561881E066E041E00E943F
:102D4000B80C80E090E0A0E8BFE38D8B9E8BAF8B4A
:102D5000B88F6D897E898F89988D2BEA3AEA4AE28D
:102D600050E40E941F02DC01CB01898B9A8BAB8B54
:102D7000BC8B69897A898B899C8920E030E040E8A6
:102D80005FE30E94250488231CF481E0888B91C0B6
:102D900069897A898B899C8920E030E04FE753E488
:102DA0000E94C50318160CF07BC06D897E898F893F
:102DB000988D20E030E04AE754E40E941903DC01DA
:102DC000CB018C879D87AE87BF876C857D858E857F
:102DD0009F8520E030E04AEF54E40E941F02DC01AE
:102DE000CB0188879987AA87BB87688579858A857B
:102DF0009B8520E030E040E85FE30E9425048823C3
:102E00002CF481E090E09F838E833FC068857985B4
:102E10008A859B8520E03FEF4FE757E40E94C5037A
:102E200018164CF56C857D858E859F8520E030E0F9
:102E300040E251E40E941F02DC01CB01BC01CD0144
:102E40000E944900DC01CB019F838E830FC088EC78
:102E500090E09D838C838C819D810197F1F79D8308
:102E60008C838E819F8101979F838E838E819F812A
:102E7000009769F724C0688579858A859B850E94BB
:102E80004900DC01CB019F838E838E819F819B83D0
:102E90008A838A819B810197F1F79B838A830FC084
:102EA00069897A898B899C890E944900DC01CB0160
:102EB000888B8889898389818A95F1F7898381E064
:102EC00066E040E00E94B80C69960FB6F894DEBF49
:102ED0000FBECDBFCF91DF910895DF93CF93CDB7D4
:102EE000DEB769970FB6F894DEBF0FBECDBF898FEE
:102EF00081E065E041E00E94B80C81E067E040E0DD
:102F00000E94B80C898D0E94561881E066E041E06D
:102F10000E94B80C80E090E0A0E8BFE38D8B9E8B10
:102F2000AF8BB88F6D897E898F89988D2BEA3AEAAD
:102F30004AE250E40E941F02DC01CB01898B9A8B8C
:102F4000AB8BBC8B69897A898B899C8920E030E0C6
:102F500040E85FE30E94250488231CF481E0888B0D
:102F600091C069897A898B899C8920E030E04FE79C
:102F700053E40E94C50318160CF07BC06D897E894E
:102F80008F89988D20E030E04AE754E40E941903CD
:102F9000DC01CB018C879D87AE87BF876C857D85E3
:102FA0008E859F8520E030E04AEF54E40E941F02A6
:102FB000DC01CB0188879987AA87BB8768857985DB
:102FC0008A859B8520E030E040E85FE30E9425048D
:102FD00088232CF481E090E09F838E833FC0688536
:102FE00079858A859B8520E03FEF4FE757E40E9473
:102FF000C50318164CF56C857D858E859F8520E070
:1030000030E040E251E40E941F02DC01CB01BC0130
:10301000CD010E944900DC01CB019F838E830FC04C
:1030200088EC90E09D838C838C819D810197F1F7E2
:103030009D838C838E819F8101979F838E838E8158
:103040009F81009769F724C0688579858A859B856B
:103050000E944900DC01CB019F838E838E819F817A
:103060009B838A838A819B810197F1F79B838A8363
:103070000FC069897A898B899C890E944900DC018B
:10308000CB01888B8889898389818A95F1F7898327
:1030900081E066E040E00E94B80C69960FB6F894B3
:1030A000DEBF0FBECDBFCF91DF910895DF93CF93E9
:1030B0000F92CDB7DEB789838981982F917080E018
:1030C00063E0492F0E94B80C89818695982F9170F2
:1030D00080E064E0492F0E94B80C8981869586952E
:1030E000982F917080E065E0492F0E94B80C89818B
:1030F000869586958695982F917080E066E0492F99
:103100000E94B80C898182958F70982F917080E011
:1031100067E0492F0E94B80C898182958695877057
:10312000982F917083E064E0492F0E94B80C898148
:103130008295869586958370982F917083E065E0DF
:10314000492F0E94B80C8981982F991F9927991FA0
:1031500081E064E0492F0E94B80C0F90CF91DF917D
:103160000895DF93CF9300D000D00F92CDB7DEB794
:103170008A836B8319828B81282F30E03D832C83D7
:103180008C819D8181309105C1F02C813D8122305F
:1031900031052CF48C819D81009761F019C02C8140
:1031A0003D812230310569F08C819D81833091050C
:1031B00061F00EC08A8189830BC08A81805C89831B
:1031C00007C08A81805F898303C08A81805B89838D
:1031D000898180680E9484160F900F900F900F9045
:1031E0000F90CF91DF910895DF93CF9300D00F928E
:1031F000CDB7DEB79B838A8319820EC08981282FC1
:1032000030E08A819B81FC01E20FF31F80810E94E4
:103210006D1789818F5F89838981282F30E08A81AA
:103220009B81FC01E20FF31F8081882339F70F9007
:103230000F900F90CF91DF910895DF93CF9300D03F
:1032400000D000D0CDB7DEB78E8319828E8188235F
:10325000F1F480E30E946D172FC08981482F50E060
:103260008E819AE0692F0E94441B892F282F205DB0
:10327000CE010296FC01E40FF51F20838E819AE0B7
:10328000692F0E94441B8E8389818F5F89838E8181
:10329000882319F70EC08981815089838981282F5D
:1032A00030E0CE010296FC01E20FF31F80810E9404
:1032B0006D178981882379F726960FB6F894DEBFBB
:1032C0000FBECDBFCF91DF910895DF93CF93CDB7E0
:1032D000DEB7A3E5B0E0E3E5F0E08081877F8C9383
:1032E000A3E5B0E0E3E5F0E080818F7B8C93A3E57C
:1032F000B0E0E3E5F0E08081887F8C93A3E5B0E067
:10330000E3E5F0E0808183608C93A3E5B0E0E3E542
:10331000F0E080818F7E8C93A3E5B0E0E3E5F0E000
:1033200080818F7D8C93A9E5B0E0E9E5F0E08081B4
:103330008E7F8C93A9E5B0E0E9E5F0E080818D7F98
:103340008C93A8E5B0E0E8E5F0E0808181608C93A3
:10335000A8E5B0E0E8E5F0E0808182608C93E2E5EA
:10336000F0E01082ECE5F0E01082CF91DF9108955B
:10337000DF93CF9300D00F92CDB7DEB789838981D9
:10338000282F30E03B832A838A819B8182309105FC
:1033900029F12A813B812330310534F48A819B81D4
:1033A0008130910561F046C02A813B81233031058F
:1033B00021F18A819B818430910571F13BC0A3E5A5
:1033C000B0E0E3E5F0E08081877F8C93A3E5B0E097
:1033D000E3E5F0E080818F7B8C932CC0A3E5B0E027
:1033E000E3E5F0E08081877F8C93A3E5B0E0E3E53F
:1033F000F0E0808180648C931DC0A3E5B0E0E3E53C
:10340000F0E0808188608C93A3E5B0E0E3E5F0E034
:1034100080818F7B8C930EC0A3E5B0E0E3E5F0E004
:10342000808188608C93A3E5B0E0E3E5F0E08081E3
:1034300080648C930F900F900F90CF91DF9108953F
:10344000DF93CF930F92CDB7DEB78983A3E5B0E0CA
:10345000E3E5F0E08081887F8C93A3E5B0E0E3E5CD
:10346000F0E090818981892B8C930F90CF91DF912F
:103470000895DF93CF93CDB7DEB7A9E5B0E0E9E5D6
:10348000F0E0808181608C93CF91DF910895DF938C
:10349000CF93CDB7DEB7A9E5B0E0E9E5F0E08081F4
:1034A0008E7F8C93CF91DF910895DF93CF930F920E
:1034B000CDB7DEB78983E2E5F0E0898180830F90A4
:1034C000CF91DF910895DF93CF93CDB7DEB7E2E5DB
:1034D000F0E08081CF91DF910895DF93CF9300D00A
:1034E000CDB7DEB79A83898389819A8190937301DE
:1034F000809372010F900F90CF91DF9108951F92EA
:103500000F920FB60F9211242F933F934F935F9317
:103510006F937F938F939F93AF93BF93EF93FF939B
:10352000DF93CF93CDB7DEB7809172019091730195
:10353000009729F0E0917201F09173010995CF9104
:10354000DF91FF91EF91BF91AF919F918F917F910B
:103550006F915F914F913F912F910F900FBE0F9000
:103560001F901895DF93CF93CDB7DEB7A9E5B0E0F4
:10357000E9E5F0E0808182608C93CF91DF9108953E
:10358000DF93CF93CDB7DEB7A9E5B0E0E9E5F0E092
:1035900080818D7F8C93CF91DF910895DF93CF93BE
:1035A0000F92CDB7DEB78983ECE5F0E089818083A7
:1035B0000F90CF91DF910895DF93CF93CDB7DEB712
:1035C000ECE5F0E08081CF91DF910895DF93CF9318
:1035D00000D0CDB7DEB79A83898389819A81909391
:1035E0007501809374010F900F90CF91DF91089532
:1035F0001F920F920FB60F9211242F933F934F9368
:103600005F936F937F938F939F93AF93BF93EF934A
:10361000FF93DF93CF93CDB7DEB780917401909184
:103620007501009729F0E0917401F09175010995F9
:10363000CF91DF91FF91EF91BF91AF919F918F91CA
:103640007F916F915F914F913F912F910F900FBE9E
:103650000F901F901895DF93CF9300D0CDB7DEB7B2
:1036600019821A820E9425130E9405110E944F069A
:103670009E012E5F3F4FCE010196B9010E9469075E
:103680008A810E944F08F4CF991B79E004C0991FEA
:10369000961708F0961B881F7A95C9F780950895AC
:1036A0002F923F924F925F926F927F928F929F9252
:1036B000AF92BF92CF92DF92EF92FF920F931F9340
:1036C000CF93DF93CDB7DEB7CA1BDB0B0FB6F894F1
:1036D000DEBF0FBECDBF09942A88398848885F8431
:1036E0006E847D848C849B84AA84B984C884DF80A2
:1036F000EE80FD800C811B81AA81B981CE0FD11D86
:103700000FB6F894DEBF0FBECDBFED010895F8945B
:02371000FFCFE9
:103712002053595354454D2048414C5445443A0096
:1037220020434C4F534520444F4F525300204348AF
:1037320045434B20574154455200204144442053B5
:103742004F41500020506C656173652073656C6554
:10375200637400202057617368696E67206D6F641F
:10376200652E2E2E0020312D576869746520322D6A
:10377200436F6C6F720020202020332D44727969D0
:103782006E670020312D4661737420283120686FE6
:103792007572290020322D4E6F726D616C283220B5
:1037A20068727329002057617368696E67202E2042
:1037B2002020202020002057617368696E67202E28
:1037C2002E2020202020002057617368696E672018
:1037D2002E2E2E20202020002057617368696E67EC
:1037E200202E2E2E2E202020002020200057415354
:1037F20048494E4720444F4E45210020504C4541F8
:10380200534520434C4F5345002020205448452027
:0E381200444F4F520000000000000000000074
:00000001FF
